:100000000A128A11EB2FFF1B0D2883137F18831709
:100010000008840A0319FF0A080000308A00040857
:10002000840A8207003400340A341F341F341F341A
:100030000E340434003444344F34203441344E34CC
:10004000203450344C345334503420344334483406
:100050004934453455342034433441344F3400342A
:1000600054344F344E344734203453344F342034D6
:100070004C3455344F344E3447343A342534643498
:10008000003454342E34423449344E34483400342D
:0A0090005434483441345034003435
:10024A00FC007C080A128A11B1230A128A110800DA
:10025A0064008001840A04060319003404062E2966
:10026A00F71B382939293A2945297609F8007709E7
:10027A00F900F80A0319F90A7808F6007908F7006C
:10028A0008008312031386170730F1007D30F0004F
:10029A00F00B4D29F10B4D298312031386137C3081
:1002AA00F1005F30F000F00B5829F10B58290800D3
:1002BA008312031306170730F1007D30F000F00BAC
:1002CA006429F10B64298312031306137C30F100AD
:1002DA005F30F000F00B6F29F10B6F2908008312D1
:1002EA00031386160730F1007D30F000F00B7B29EE
:1002FA00F10B7B298312031386127C30F1005F30E5
:10030A00F000F00B8629F10B8629080083160317E3
:10031A0089018801831203138701073083160313A7
:10032A00870083120313860107308316031386009E
:10033A008112811101158110011008008312031323
:10034A0086170C30F100AF30F000F00BAA29F10B40
:10035A00AA298312031386139630F1005830F0004D
:10036A00F00BB529F10BB52900000800831203131D
:10037A0006170C30F100AF30F000F00BC229F10B78
:10038A00C2298312031306139630F1005830F00085
:10039A00F00BCD29F10BCD290000080083120313BD
:1003AA0086160C30F100AF30F000F00BDA29F10BB1
:1003BA00DA298312031386129630F1005830F000BE
:1003CA00F00BE529F10BE52900000800F430F000F4
:1003DA000130F100F92964308312031381000B11F3
:1003EA000B1DF829F929F529FF30F0070318F10A3E
:1003FA00FF30F107700A031D062A710A031D062A37
:10040A00072AF029080083120313BC003930BB0005
:10041A003C08BD00BF01C001C601C7013808B400CD
:10042A003B30B5003D300A128A1127220A128A117E
:10043A00831203133F083C07FD007D0884008313E1
:10044A008001080083120313B6003408B700372A64
:10045A003730A8003508A90036080A128A11C025C3
:10046A000A128A1183120313370884000A128A11A6
:10047A000D200A128A11003A031D442A452A2D2A00
:10048A00B401B501080083120313071C4D2A4E2A32
:10049A00632A0A128A1146210A128A110130FF00C0
:1004AA007F0883120313E8070A128A11EB210A1242
:1004BA008A110A128A11A3210A128A1183120313BA
:1004CA00E401E40AE101E10A080083120313871C2C
:1004DA006F2A702A852A0A128A115D210A128A1144
:1004EA000A128A11EB210A128A110130FF007F08D1
:1004FA0083120313E7070A128A11BB210A128A110F
:10050A0083120313E301E30AE101E10A08008312FB
:10051A000313071D912A922AA72A0A128A11742103
:10052A000A128A110A128A11EB210A128A1101305F
:10053A00FF007F0883120313E6070A128A11D321E8
:10054A000A128A1183120313E201E20AE101E10AA3
:10055A000800C32A7D08FF007C0884000A128A1159
:10056A0003200A128A110A128A11B1230A128A1165
:10057A000130FC070318FD0A0030FD077D088312CD
:10058A000313FF007C0884000A128A1103200A124E
:10059A008A11003A031DD22AD32AAF2A08008316E9
:1005AA00031308168816081788178312031388146A
:1005BA0008102130F000F00BE02A8312031308150B
:1005CA002130F000F00BE72A003083120313881B56
:1005DA000130F10008112130F000F00BF22A8312E9
:1005EA00031308152130F000F00BF92A83120313C4
:1005FA00081171080800F5008316031308128812FF
:10060A0008138813750803190B2B0C2B102B831254
:10061A0003130814132B8312031308102130F40058
:10062A00F40B152B8312031388102130F400F40BFA
:10063A001C2B8312031308117308F40004300310EF
:10064A00F40CFF3E031D242B74080A128A1171232D
:10065A000A128A1173080F390A128A1171230A12AF
:10066A008A110800F8007608031D3C2B3D2B412B0C
:10067A007808803EF7005E2B7603031D452B462B38
:10068A004A2B7808C03EF7005E2B02307606031D1F
:10069A004F2B502B542B7808943EF7005E2B0330D7
:1006AA007606031D592B5A2B5E2B7808D43EF70089
:1006BA005E2B7708F30000300A128A1100230A120F
:1006CA008A110A128A11D4220A128A11003A031DC7
:1006DA006F2B702B662B0800F10083160313081288
:1006EA008812081388137108F20072187D2B812B67
:1006FA00831203130816842B831203130812F218A9
:10070A00872B8B2B8312031388168E2B83120313CA
:10071A0088127219912B952B831203130817982BA1
:10072A00831203130813F2199B2B9F2B83120313B3
:10073A008817A22B8312031388132130F000F00BC1
:10074A00A42B8312031308152130F000F00BAB2BF6
:10075A008312031308110800FB00F52BF301F30AB7
:10076A0000300A128A1100230A128A110A128A1107
:10077A00D4220A128A11003A031DC42BC52BBB2BA3
:10078A00082CF601F60A00300A128A1137230A12D7
:10079A008A11082C1030F30000300A128A11002343
:1007AA000A128A110A128A11D4220A128A11003AEA
:1007BA00031DE02BE12BD72B082C7B08F30001301B
:1007CA000A128A1100230A128A110A128A11D422E1
:1007DA000A128A11003A031DF32BF42BEA2B082C78
:1007EA007B08F900FA017A08003A0319FD2BE22B7B
:1007FA007908083A0319CF2B023A0319C62B063A8D
:10080A000319B32BE22B0800F501F31F0D2C0E2C54
:10081A00152CF209F309F20A0319F30AF501F50A8C
:10082A00F11F182C192C1E2CF009F109F00A0319D2
:10083A00F10A700871040319232C242C532CF40197
:10084A00F40A322C01300310F00DF10DFF3E031DA6
:10085A00282C0130FF007F08F407F11F352C362CB5
:10086A00272C71087302031D3C2C70087202031CAA
:10087A003F2C402C462C7008F2027108031CF3032B
:10088A00F30201300310F10CF00CFF3E031D472C5C
:10089A000130F402031D522C532C362C750803190F
:1008AA00572C582C5D2CF209F309F20A0319F30AA2
:1008BA007308F1007208F00008008312031322087B
:1008CA000319682C692C6E2C2208031D6D2C6E2CC2
:1008DA00752C20080A128A1125210A128A11BB2CAA
:1008EA002208093E840083130008A300840A000832
:1008FA00A400230824040319832C842CA22C220884
:10090A00093E84000008A300840A0008A400220803
:10091A00023E84000008A500840A0008A6002608F2
:10092A00803AA7002408803A2702031D9E2C230838
:10093A0025020318A12CA22CBB2C83120313220814
:10094A00023E840083130008A300220884000008E2
:10095A002307A40024088400200880002208023EFD
:10096A00840001308007840A0318800A0800F50110
:10097A00F11FC02CC12CC82CF009F109F00A031987
:10098A00F10AF501F50AF31FCB2CCC2CD52CF20970
:10099A00F309F20A0319F30A0130FF007F08F5068A
:1009AA00F601F701700871040319DC2CDD2C142DF3
:1009BA00F401F40AEB2C01300310F00DF10DFF3EA7
:1009CA00031DE12C0130FF007F08F407F11FEE2C14
:1009DA00EF2CE02C01300310F60DF70DFF3E031D3E
:1009EA00F02C71087302031DFC2C70087202031CA0
:1009FA00FF2C002D072D7008F2027108031CF30367
:100A0A00F302761401300310F10CF00CFF3E031DC3
:100A1A00082D0130F402031D132D142DEF2C750837
:100A2A000319182D192D1E2DF609F709F60A0319AF
:100A3A00F70A7708F1007608F00008008316031316
:100A4A0008110810881008128812081388136230D7
:100A5A00F7006530F600F60B302DF70B302D352DEB
:100A6A008312031308108810081103300A128A111E
:100A7A0071230A128A114130F700EE30F600F60BA4
:100A8A00442DF70B442D000003300A128A117123FA
:100A9A000A128A114130F700EE30F600F60B532D98
:100AAA00F70B532D000003300A128A1171230A1220
:100ABA008A114130F700EE30F600F60B622DF70B83
:100ACA00622D000002300A128A1171230A128A1159
:100ADA000A128A11D4220A128A11003A031D762DAB
:100AEA00772D6D2D2C30F30000300A128A11002365
:100AFA000A128A110A128A11D4220A128A11003A97
:100B0A00031D882D892D7F2D0C30F30000300A1229
:100B1A008A1100230A128A110A128A11D4220A128D
:100B2A008A11003A031D9A2D9B2D912DF301F30A88
:100B3A0000300A128A1100230A128A110A128A1133
:100B4A00D4220A128A11003A031DAC2DAD2DA32D11
:100B5A000630F30000300A128A1100230A128A11A1
:100B6A000A128A11D4220A128A11003A031DBE2DD2
:100B7A00BF2DB52D080083120313AD002808840089
:100B8A008313000884000A128A110D200A128A119E
:100B9A00253A031DD12DD22D952E0130FF002808AC
:100BAA0084007F088007DC01DD0103100030031890
:100BBA000130E000FF30DE00FF30DF00280884004B
:100BCA000008AE002E0884000A128A110D200A12AB
:100BDA008A11643A0319F22DF32DFF2D2E08840091
:100BEA000A128A110D200A128A11693A031DFE2D72
:100BFA00FF2D8B2E290884000008FF000230800791
:100C0A007F0884000008AF00840A0008B0002808A2
:100C1A0084002E08013E80002030B300B01B162E3F
:100C2A00182E0130192E0030AC000130B3023308FF
:100C3A00A03E84000A30F0000030F1003008F300D2
:100C4A002F08F2000A128A1109240A128A1171085D
:100C5A00F7007008F6000A128A1135210A128A1161
:100C6A007608303E831380000A30F0000030F1002D
:100C7A00831203133008F3002F08F2000A128A11B4
:100C8A00BC240A128A11710883120313B000700877
:100C9A00AF002F0830040319532E542E592E33084F
:100CAA00031D582E592E1A2E330803195D2E5E2E57
:100CBA00842E2C080319622E632E842E0130B3026F
:100CCA003308A03E84002D3083138000842E33081D
:100CDA00A03E840083130008AA00AB012A08A000E2
:100CEA002B08A1002D08A2000A128A1162240A12F6
:100CFA008A110130FF007F0883120313B3072030E3
:100D0A003306031D892E8A2E6C2EAC2E0130FF006D
:100D1A0083120313280884007F0883138007AC2EEC
:100D2A0028088400000884000A128A110D200A1279
:100D3A008A11AA00AB012A08A0002B08A1002D08DD
:100D4A00A2000A128A1162240A128A118B2E080042
:100D5A000A128A118B210A128A110A128A11232570
:100D6A000A128A114030F30000300A128A11002355
:100D7A000A128A1183120313DA01DB0183120313A5
:100D8A005A08013E84000A128A110D200A128A1199
:100D9A00F30001300A128A1100230A128A11013063
:100DAA0083120313DA070318DB0A0030DB075B0838
:100DBA00803AFF0080307F02031DE52E08305A0278
:100DCA00031CE82EE92EC32E0A128A118C220A125B
:100DDA008A110A128A1148220A128A110A128A11DF
:100DEA006A220A128A118312031367086807C80065
:100DFA0066084807E500F60100300A128A1137230F
:100E0A000A128A110930FC008030FD000A128A1188
:100E1A00AE220A128A11F601F60A00300A128A1163
:100E2A0037230A128A111A30FC008030FD000A1298
:100E3A008A11AE220A128A11F601F60A06300A123D
:100E4A008A1137230A128A112F30FC008030FD00E4
:100E5A000A128A11AE220A128A11F601F60A0F3014
:100E6A000A128A1137230A128A113630FC0080309E
:100E7A00FD000A128A11AE220A128A110230F60005
:100E8A0001300A128A1137230A128A112C3083126E
:100E9A000313B8006808C800C9014808B90049081E
:100EAA00BA004A300A128A1108220A128A114A30F2
:100EBA00FC000030FD000A128A11AE220A128A11C1
:100ECA000230F60008300A128A1137230A128A11F0
:100EDA002C3083120313B8006608C800C9014808F9
:100EEA00B9004908BA004A300A128A1108220A12BD
:100EFA008A114A30FC000030FD000A128A11AE2223
:100F0A000A128A110230F60010300A128A113723A7
:100F1A000A128A112C3083120313B8006708C8001A
:100F2A00C9014808B9004908BA004A300A128A11A8
:100F3A0008220A128A114A30FC000030FD000A1207
:100F4A008A11AE220A128A110330F60002300A12FE
:100F5A008A1137230A128A111E3083120313B8002A
:100F6A006508C800C9014808B9004908BA004A30EA
:100F7A000A128A1108220A128A114A30FC00003029
:100F8A00FD000A128A11AE220A128A110330F600F3
:100F9A0000300A128A1137230A128A1100300A1203
:100FAA008A11B1230A128A110330F60013300A1289
:100FBA008A1137230A128A1100300A128A11B123C0
:100FCA000A128A11E92E0A128A11002883135C3048
:100FDA00840069300A128A112D210A128A11A0305E
:100FEA008400C0300A128A112D210A128A11830143
:060FFA000A128A11AD2E5F
:04400E00F220FF3F5E
:00000001FF
